:100000000C94C7010C94E4010C94E4010C94E401F9
:100010000C94E4010C94E4010C94E4010C94E401CC
:100020000C94E4010C94E4010C94E4010C94E401BC
:100030000C94E4010C94E4010C94E4010C94E401AC
:100040000C94E4010C94E4010C94E4010C94E4019C
:100050000C94E4010C94E4010C94E4010C94E4018C
:100060000C94E4010C94E4010C94E4010C94E4017C
:100070000C94E4010C94E4010C94E4010C94E4016C
:100080000C94E4010C94E4010C94E4010C94E4015C
:100090000C94E4010C94E4010C94E4010C94E4014C
:1000A0000C94E4010C94E4010C94E40100000000C1
:1000B0000000005F00000007000700147F147F1499
:1000C000242A7F2A122313086462364955225000DD
:1000D00005030000001C2241000041221C001408FE
:1000E0003E081408083E08080050300000080808C0
:1000F0000808006060000020100804023E514945D5
:100100003E00427F400042615149462141454B310A
:100110001814127F1027454545393C4A494930019A
:10012000710905033649494936064949291E0036F1
:100130003600000056360000081422410014141442
:100140001414004122140802015109063249794170
:100150003E7E1111117E7F494949363E414141227F
:100160007F4141221C7F494949417F090909013EDC
:100170004149497A7F0808087F00417F41002040BB
:10018000413F017F081422417F404040407F020CE4
:10019000027F7F0408107F3E4141413E7F090909EB
:1001A000063E4151215E7F09192946464949493198
:1001B00001017F01013F4040403F1F2040201F3F81
:1001C0004038403F63140814630708700807615102
:1001D000494543007F41410002040810200041418D
:1001E0007F0004020102044040404040000102043C
:1001F0000020545454787F484444383844444420C0
:10020000384444487F3854545418087E0901020C7D
:100210005252523E7F0804047800447D4000204042
:10022000443D007F1028440000417F40007C0418BA
:1002300004787C0804047838444444387C1414144A
:1002400008081414187C7C080404084854545420EA
:10025000043F4440203C4040207C1C2040201C3C6B
:100260004030403C44281028440C5050503C4464DA
:10027000544C44000836410000007F000000413625
:100280000800100808100878464146786E616E0034
:10029000696E660000407A10F35A00A0724E180989
:1002A0000010A5D4E80000E87648170000E40B54DD
:1002B000020000CA9A3B000000E1F50500008096AC
:1002C0009800000040420F000000A08601000000DE
:1002D000102700000000E803000000006400000098
:1002E00000000A00000000000100000000002C7661
:1002F000D888DC674F0823DFC1DFAE59E1B1B7967C
:10030000E5E3E453C63AE651997696E8E6C28426D8
:10031000EB898C9B62ED407C6FFCEFBC9C9F40F2B4
:10032000BAA56FA5F490055A2AF75C936B6CF96730
:100330006DC11BFCE0E40D47FEF520E6B500D0EDF5
:10034000902E0300943577050080841E080000205D
:100350004E0A000000C80C333333330F986E1283FB
:100360001141EF8D2114893BE65516CFFEE6DB18CF
:10037000D1844B381BF77C1D901DA4BBE424203294
:1003800084725E228100C9F124ECA1E53D2711248D
:100390001FBECFEFDAE0DEBFCDBF11E0A0E0B1E0DD
:1003A000E0E5FAE202C005900D92AE39B107D9F747
:1003B00017E0AEE9B1E001C01D92AB3DB107E1F736
:1003C0000E9427090C9426150C9400008091B60118
:1003D0009091B70101969093B7018093B60142972F
:1003E00069F48091BA019091BB0101969093BB0191
:1003F0008093BA011092B7011092B6018091BA01B0
:100400009091BB01CC9768F01092BB011092BA0199
:100410008091B8019091B90101969093B9018093B0
:10042000B80108955F926F927F928F929F92AF92E0
:10043000BF92CF92DF92EF92FF920F931F93DF93C1
:10044000CF93CDB7DEB77BA0CA88DB88EC88FD8868
:100450006AA08FA098A4A9A4BAA45FA86E897F8976
:10046000888D998D0E9432118B016BA57CA58DA57D
:100470009EA50E94321188AD9B01280F311D0217E5
:100480001307FCF4070D111D60177107D4F4C701A1
:10049000B6010E9432118B01C501B4010E943211D4
:1004A000C801860D911D681779075CF490E0650D11
:1004B000711D061717070CF091E081E09827892F2E
:1004C00002C080E090E0CF91DF911F910F91FF90EB
:1004D000EF90DF90CF90BF90AF909F908F907F90E4
:1004E0006F905F90089581E08093D7011092D801BA
:1004F0001092D9011092DA0181E090E09093DC0132
:100500008093DB010895DF92EF92FF920F931F9388
:100510008091FC01882309F454C0D090FD01DD20B6
:10052000B1F06091E7017091E8018091E90190914B
:10053000EA0120E030E040E85FE30E94621060934F
:10054000E7017093E8018093E9019093EA01E0905C
:10055000E701F090E8010091E9011091EA01C8017A
:10056000B70120E030E048E952E40E9415128823E8
:1005700024F081E0D826D092FD01C801B70120E027
:1005800030E040E85FE30E94C610181634F0809116
:10059000FD0191E089278093FD018091FD01882371
:1005A00081F4C801B70120E030E040E85FE30E9439
:1005B00061106093E7017093E8018093E9019093E3
:1005C000EA011F910F91FF90EF90DF900895189B23
:1005D00008C01899FECF8091D80191E089278093B7
:1005E000D8018FB182958695877080FF08C07D996C
:1005F000FECF8091FC0191E089278093FC01089552
:100600006F927F928F929F92AF92BF92CF92DF9222
:10061000EF92FF920F931F93CF93DF937C01FC0126
:1006200060817181828193810E9419120E9432112E
:100630006B01F70180893601680E711C6481758138
:10064000868197810E9419120E9432114B01A0905D
:10065000B705B090B8050FE612E0C0E0D0E026C0C4
:10066000F80160817181828193810E9419120E9438
:1006700032119B01F80140896481758186819781DF
:100680002615370584F4240F311DC216D3065CF4F9
:100690000E9419120E943211F7012189621B71090F
:1006A0008616970641F021960B5E1F4FCA15DB0593
:1006B000B8F2CFEFDFEFCE01DF91CF911F910F9115
:1006C000FF90EF90DF90CF90BF90AF909F908F9072
:1006D0007F906F900895FC01648175818681978178
:1006E0000E9419120E943211DC01CB0102966AE0CD
:1006F00070E00E94761261507040CB010895FC01B9
:1007000060817181828193810E9419120E9432114D
:10071000DC01CB016CE070E00E947612CB01089501
:100720000E94660980E090E06AE070E040E051E0FD
:1007300021E00E945D0B80E090E064E170E04DE01C
:1007400051E021E00E945D0B80E090E06EE170E0FE
:1007500046E151E021E00E945D0B0E94820B8FB1C7
:10076000829586958695837080FF06C07E99FECF20
:100770000E9466091092D70108950F931F93CF939B
:10078000DF930E94660987EE91E00E942C0C8CEBAF
:1007900091E00E942C0C0FE612E0C0E0D0E006C011
:1007A000C8010E942C0C21960B5E1F4F8091B7054B
:1007B0009091B805C817D90798F38FE991E00E9486
:1007C0002C0C0E94820BDF91CF911F910F91089505
:1007D0008F929F92AF92BF92CF92DF92EF92FF9251
:1007E0000F931F932091BC013091BD014091BE0138
:1007F0005091BF018090C0019090C101A090C201B2
:10080000B090C3018091D5019091D601892B09F454
:1008100044C0CA01B90120E030E040E850E40E9441
:1008200061100E943211882777FD8095982F0E94D1
:1008300065116B017C01C501B40120E030E040E0AE
:1008400050E40E9461100E943211882777FD809544
:10085000982F0E9465118B019C018FE991E0B701EF
:10086000A601A4E0EA2EF4E0CF2EE4E8AE2EE1E00B
:10087000BE2E0E94040C8091D5019091D601019763
:100880009093D6018093D5018091B4019091B501E8
:1008900001969093B5018093B4011F910F91FF9041
:1008A000EF90DF90CF90BF90AF909F908F90089582
:1008B00083B1869580FF16C06091BC017091BD0127
:1008C0008091BE019091BF0120E030E040E05FE305
:1008D0000E9461106093BC017093BD018093BE01C2
:1008E0009093BF01489B16C06091BC017091BD01FF
:1008F0008091BE019091BF0120E030E040E05FE3D5
:100900000E9462106093BC017093BD018093BE0190
:100910009093BF01279B02C00E94E8030895AF9205
:10092000BF92CF92EF920F931F9381E08093FC01CF
:1009300087EE91E040E050E068E172E400E010E012
:1009400020E332E4F8E0EF2EE3E0CE2EB6E8AB2E63
:10095000B1E0BB2E0E94040C1F910F91EF90CF903D
:10096000BF90AF900895AF92BF92CF92EF920F9346
:100970001F938CEB91E040E050E068E172E400E00E
:1009800010E02CE132E4E8E0EE2EB8E0CB2EA9E84E
:10099000AA2EA1E0BA2E0E94040C80E090E0A0E014
:1009A000BFE38093C8019093C901A093CA01B0939B
:1009B000CB0185E090E09093D6018093D5011F9103
:1009C0000F91EF90CF90BF90AF900895AF92BF92EC
:1009D000CF92DF92EF92FF920F931F93DF93CF930B
:1009E000CDB7DEB7C055D0400FB6F894DEBF0FBE0E
:1009F000CDBF0FE612E0CC24DD24EE24FF245E01FF
:100A00000894A11CB11C1AC0F701E554FA4F80816B
:100A1000882379F0C8010E946B03892B51F4F601F9
:100A2000EE0FFF1FEA0DFB1D008311830894C11C0C
:100A3000D11C0894E11CF11C0B5E1F4F8091B7057F
:100A40009091B805E816F906F8F2C114D10419F42A
:100A5000E0E0F0E006C00E941113B6010E94761299
:100A6000FC01EE0FFF1FEC0FFD1F01811281F80149
:100A7000C080D180E280F3800E941113F801608968
:100A800070E02091CC01621B71090E947612AA27A6
:100A900097FDA095BA2FBC01CD010E9465119B0165
:100AA000AC01C701B6010E9462106093BC01709353
:100AB000BD018093BE019093BF016091CD0170E0B4
:100AC000882777FD8095982F0E9465119B01AC01C6
:100AD000F80164817581868197810E94611060931D
:100AE000C0017093C1018093C2019093C301C05BA8
:100AF000DF4F0FB6F894DEBF0FBECDBFCF91DF91B1
:100B00001F910F91FF90EF90DF90CF90BF90AF902B
:100B100008952DB73EB72A5230400FB6F8943EBF25
:100B20000FBE2DBF2F5F3F4FD901ECEBF1E085E108
:100B300001900D928150E1F7D9015596E7EEF1E071
:100B400085E101900D928150E1F70E9412022DB7CC
:100B50003EB7265D3F4F0FB6F8943EBF0FBE2DBF88
:100B60008823B9F08091D1019091D201029690939F
:100B7000D2018093D10180E090E0A8E4B3EC8093AF
:100B8000EB019093EC01A093ED01B093EE010E9474
:100B9000E60408952F923F924F925F926F927F9258
:100BA0008F929F92AF92BF92CF92DF92EF92FF927D
:100BB0000F931F93DF93CF93CDB7DEB7C855D040C7
:100BC0000FB6F894DEBF0FBECDBF1092B8051092DD
:100BD000B705FE01319680E5DF011D928A95E9F7A0
:100BE00023E130E063963FAF2EAF6397BCE12B2E3D
:100BF000312C442455246896EFAF68976996FFAF6F
:100C00006997B3C08091B7059091B805889708F0AF
:100C1000A5C00E941113AA2797FDA095BA2FBC0169
:100C2000CD010E94651120E03EEF4FEF56E40E9497
:100C3000CA105B016C0163964EAD5FAD6397BA015C
:100C4000882777FD8095982F0E9465117B018C0184
:100C5000B101882777FD8095982F0E9465119B012F
:100C6000AC01C801B7010E94CA109B01AC01C601CA
:100C7000B5010E94C61018160CF45FC063968EADC5
:100C80009FAD6397019763969FAF8EAF63978091F7
:100C9000B7059091B805A5E1B0E08A9F50018B9F00
:100CA000B00C9A9FB00C1124EFE6F2E0AE0EBF1E1E
:100CB0000E94111362E070E00E9476128C01C40160
:100CC00066E070E00E947612060F171F222717FDBC
:100CD0002095322FC901B8010E9465116B017C017A
:100CE00067966CAD7DAD8EAD9FAD67970E94651127
:100CF0008B019C01C501B701A601AAE0EA2EF2E032
:100D0000CF2EE1E9AE2EE1E0BE2E0E94040C209130
:100D1000B7053091B805F901E554FA4F41E0408339
:100D2000D3018D919C91119701968D939C932F5F88
:100D30003F4F3093B8052093B70508942108310838
:100D4000E8E4F0E08E0E9F1E22E030E0620E731E9B
:100D500038EF831631E0930609F054CF0894411C14
:100D6000511C44E04416510419F1C201809590953C
:100D70009C01220F331F220F331F280F391F20958C
:100D80003095220F331F68968FAD689769969FAD97
:100D900069973C0188249924C901AA2797FDA09549
:100DA000BA2F67968CAF9DAFAEAFBFAF67972ACF14
:100DB0002091B7053091B80589E190E0DC012A9FC8
:100DC000C0012B9F900D3A9F900D112464E670E0B6
:100DD0000E9462127093BA056093B9056230710582
:100DE00030F482E090E09093BA058093B905EE2448
:100DF000FF2425E1422E512C3E010894611C711CF8
:100E000095E9892E91E0992E33C0EBEBF5E0AE0E1B
:100E1000BF1ED5011C92F801948A838A790128C0EB
:100E200079010E9411136091B7057091B805615066
:100E300070400E9462125C010894A11CB11CA49C29
:100E40008001A59C100DB49C100D112401591D4F5B
:100E5000C8010E947F03FC01EE0FFF1FE60DF71D86
:100E60008081918197012F5F3F4F0297CCF2CDCFC8
:100E70008091B9059091BA05E816F90690F2C85A22
:100E8000DF4F0FB6F894DEBF0FBECDBFCF91DF911D
:100E90001F910F91FF90EF90DF90CF90BF90AF9098
:100EA0009F908F907F906F905F904F903F902F908A
:100EB00008951092D4011092D3018AE090E09093AB
:100EC000D2018093D1010E948F040E94B3040E943A
:100ED000CA050E94E60408950E9466098EE090E02B
:100EE00060E070E04CE151E021E00E945D0B80E0A9
:100EF00090E06FE070E047E251E021E00E945D0B7E
:100F000080E090E069E170E046E351E021E00E947A
:100F10005D0B81E08093D9018FB1829586958770B2
:100F200080FF0AC07D99FECF1092D9011092BB01BB
:100F30001092BA010E9459078FB1829586958695C5
:100F4000837080FF05C081E08093DA011092D9019F
:100F50000E94820B08950F931F938CEB91E00E94E7
:100F60000003FC0197FD1BC0E554FA4F80818823E4
:100F700091F080918301882349F08091D301909171
:100F8000D40101969093D4018093D30110928301F0
:100F90000E94580421C081E080939E011DC081E021
:100FA000809383016091C0017091C1018091C20161
:100FB0009091C3012091C8013091C9014091CA01AB
:100FC0005091CB010E9462106093C0017093C101E7
:100FD0008093C2019093C3016091BC017091BD01E7
:100FE0008091BE019091BF010E9419120E9432119E
:100FF0009B014091CC018091C0019091C101A091D1
:10100000C201B091C3010091CD0177FD11C0240F41
:10101000311D2535310564F4BC01CD010E94191242
:1010200010E00E943211060F171F013311051CF04A
:1010300081E080939E0180919E018823D9F01092D7
:1010400083018091D1019091D20101979093D201B7
:101050008093D101029730F00E94B3040E94E6040D
:1010600010929E018091D1019091D201892B11F4AF
:101070000E946C071F910F9108950E94E7020E9441
:10108000E6010E9483020E94AB070E9489050E942C
:10109000BD030895E1E6F0E080E8808381E080838D
:1010A0008FE30E94B60B0895EF92FF920F931F9368
:1010B000F82EE62E8DB79EB70A970FB6F8949EBF0E
:1010C0000FBE8DBFEDB7FEB731960DED11E0ADB798
:1010D000BEB712961C930E9311978AE090E093830B
:1010E000828388E491E095838483578346833187A4
:1010F00020870E943B148DB79EB70A960FB6F894CE
:101100009EBF0FBE8DBF8F2D90E06E2D70E0A801A9
:1011100021E00E945D0B1F910F91FF90EF900895C9
:10112000EF92FF920F931F93F82EE62E8DB79EB786
:1011300008970FB6F8949EBF0FBE8DBFEDB7FEB7F0
:1011400031960DED11E0ADB7BEB712961C930E931C
:1011500011978AE090E09383828382E591E0958302
:101160008483578346830E943B148DB79EB70896AD
:101170000FB6F8949EBF0FBE8DBF8F2D90E06E2DE1
:1011800070E0A80121E00E945D0B1F910F91FF907C
:10119000EF9008950E9466098EE090E060E070E0B4
:1011A00045E551E021E00E945D0B4091D301509153
:1011B000D4018EE06FE00E9490080E94820B089597
:1011C0000E9466098EE090E060E070E041E651E048
:1011D00021E00E945D0B80E090E06FE070E04DE662
:1011E00051E021E00E945D0B4091D3015091D40168
:1011F0008AE46FE00E94900880E090E069E170E08E
:1012000045E751E021E00E945D0B4091D1015091F2
:10121000D2018AE469E10E94900880E090E063E2F4
:1012200070E04DE751E021E00E945D0B4091B80174
:101230005091B9012091BA013091BB018BE363E277
:101240000E9454080E94E7020E94820B08950E94A7
:101250004A0881E08093D7011092D8011092D901F9
:101260001092DA0181E090E09093DC018093DB0141
:101270008DE099E00E9416130E9459078091D701D2
:10128000882319F00E949003F9CF8091D801882318
:1012900019F00E94E008F2CF8091D901882319F05B
:1012A0000E946C07EBCF8091DA01882319F00E942D
:1012B000CA08E4CF8091DB019091DC010196909304
:1012C000DC018093DB010E943D08D8CFE3EEF5E01E
:1012D000119287E0EB3DF807D9F708959C0197FD3F
:1012E00037C077FD35C08435910594F560337105BD
:1012F0007CF5CB0173E0959587957A95E1F767705A
:10130000452B99F0E4E58E9FF0011124E20FF31FC5
:10131000ED51FA4F81E090E002C0880F991F6A9565
:10132000E2F72081282B20830895E4E58E9FF001C9
:101330001124E20FF31FED51FA4F81E090E002C05B
:10134000880F991F6A95E2F78095208128232083D2
:1013500008952F923F924F925F926F927F928F9259
:101360009F92AF92BF92CF92DF92EF92FF920F9334
:101370001F93DF93CF93CDB7DEB72E970FB6F894B8
:10138000DEBF0FBECDBF7C016B014A0139011C8756
:101390000B8784179507F9F45B0110C0C701B501ED
:1013A0004B855C850E946E09C614D70424F408940A
:1013B000A11CB11C03C00894A108B108C614D7042D
:1013C0002CF46A147B040CF4FDC0E8CFA614B70417
:1013D0000CF4F8C0E3CF62177307F9F45C0110C096
:1013E000C501B6014B855C850E946E09E814F904BD
:1013F00024F40894A11CB11C03C00894A108B108EE
:10140000E814F9042CF48A149B040CF4DBC0E8CF34
:10141000A814B9040CF4D6C0E3CF4817590724F434
:1014200047017A013B016901B4016E197F098827E0
:1014300077FD8095982F0E9465116F837887898743
:101440009A87B3016C197D09882777FD8095982FBD
:101450000E9465116B837C838D839E832F813885E9
:1014600049855A850E94CA101B012C0120E030E0FA
:1014700040E050E00E94151287FF04C057FA5094D4
:1014800057F85094DA82C9820F2EF0E0AF2EF0E0C8
:10149000BF2EF0E0CF2EF0E0DF2EF02D7FC0C70191
:1014A00069817A814B855C850E946E09C601B50110
:1014B000A20191010E9462103BC0C70169817A813B
:1014C0004B855C850E946E091E861D866B817C8122
:1014D0008D819E8120E030E040E050E00E941512B6
:1014E000181624F421E030E03E872D8700E010E05C
:1014F0006B817C818D819E8120E030E040E050E076
:101500000E94C610882314F401E010E08D859E85AA
:10151000801B910BE981FA81E80FF91FFA83E983B7
:10152000C601B50120E030E040E85FE30E946110B1
:101530005B016C0120E030E040E05FE30E941512A7
:101540008823CCF06B817C818D819E8120E030E00E
:1015500040E050E00E94151218163CF429813A81AF
:10156000621673060CF0A9CF06C089819A81861590
:1015700097050CF0A2CF6F81788589859A8520E048
:1015800030E040E050E00E941512181624F4089450
:10159000E11CF11C03C00894E108F1086F81788513
:1015A00089859A8520E030E040E050E00E941512E5
:1015B000181624F48E149F042CF071CFE814F9044B
:1015C0000CF06DCF2E960FB6F894DEBF0FBECDBFD8
:1015D000CF91DF911F910F91FF90EF90DF90CF900F
:1015E000BF90AF909F908F907F906F905F904F9043
:1015F0003F902F9008954F925F926F927F928F92BB
:101600009F92AF92BF92CF92DF92EF92FF920F9391
:101610001F93CF93DF933B01490125E0429FA00137
:101620001124ACE0EA2EA0E0FA2EE40EF51E8C01A7
:10163000F1E04F2E512CE1E1AE2EE0E0BE2EA40EE3
:10164000B51EF70184918114910409F48095C0E0DE
:10165000D0E0C82EDD24BE01660D771DA2010C2E40
:1016600002C0440F551F0A94E2F74C215D210C2E55
:1016700002C0559547950A94E2F7C8010E946E0989
:101680002196C830D10539F70894E11CF11C0F5F91
:101690001F4FEA14FB04A9F6DF91CF911F910F9120
:1016A000FF90EF90DF90CF90BF90AF909F908F9082
:1016B0007F906F905F904F900895CF92DF92EF925E
:1016C000FF920F931F93CF93DF936B017A01E90190
:1016D000082F10E008C0802F90E0B6019E010E9404
:1016E000FB0A0B5F1F5FF701E10FF11D40814423EF
:1016F00091F7DF91CF911F910F91FF90EF90DF90C5
:10170000CF900895CF93DF9380E060E00E94F70BC5
:10171000C3EED5E081E069910E94950B87E0CB3D57
:10172000D807C1F7DF91CF91089595B18295880FC1
:10173000807E9F7D982B95B95F9827E030E070E020
:101740008F98CB01022E02C0959587950A94E2F7F7
:1017500080FF02C02E9A01C02E988F9A21503040EF
:101760008FEF2F3F380761F75F9A08951F93182F67
:10177000579A249A259A269A879A2C985F9A2C9A97
:1017800080E061E20E94950B106880E0612F0E946A
:10179000950B80E064E00E94950B80E063E10E947D
:1017A000950B80E06CE00E94950B80E060E20E9467
:1017B000950B80E06CE00E94950B80E060E40E9455
:1017C000950B80E060E80E94950B1F910895CF93E0
:1017D000DF93C0E0D0E081E060E00E94950B2196AD
:1017E00081E0C83FD807B9F7DF91CF9108951F93E3
:1017F000182F606480E00E94950B106880E0612FD4
:101800000E94950B1F910895AF92BF92CF92EF92D5
:101810000F931F93FC01408351836283738304837E
:10182000158326833783E08AC18AB48AA38A81E03C
:10183000828B80E090E0A0E0B0E080879187A28773
:10184000B38784879587A687B7871F910F91EF90FD
:10185000CF90BF90AF9008952F923F924F925F929A
:101860006F927F928F929F92AF92BF92CF92DF92B0
:10187000EF92FF920F931F93CF93DF938C01DC01C4
:1018800052968C915297882309F481C06D917D9175
:101890008D919C910E9419120E9432113B01F80116
:1018A0002481358146815781643571050CF06FC004
:1018B000D80150968C91C82FD0E0CE01860D971D8F
:1018C000181619060CF063C0CA01B9010E9419125A
:1018D0000E9432114B01603371050CF058C0F801C1
:1018E00081899401280F311D121613060CF04FC088
:1018F00057E0A52EB12CAC0EBD1E43E0B594A794C5
:101900004A95E1F7EE24FF24CC24DD2437E0232E92
:10191000312C31C0CE0123E0959587952A95E1F7CA
:10192000D8015396ED91FC915497EC0DFD1DE80FF5
:10193000F91F408150E0CE0187709070F101E81BE3
:10194000F90B02C055954795EA95E2F74170507042
:10195000CE01860D971DB2010E946E092196D80115
:1019600050968C9190E0C817D907A4F20894E11C16
:10197000F11CCA0CDB1CF801818990E0E816F9061D
:1019800034F4C0E0D0E02701480C591CE8CFDF91C7
:10199000CF911F910F91FF90EF90DF90CF90BF906C
:1019A000AF909F908F907F906F905F904F903F90FF
:1019B0002F900895A1E1B0E0E0EEFCE00C948912D4
:1019C0003C017F876E876A01FC0117821682838142
:1019D00081FD03C06FEF7FEF6FC39E012F5F3F4F0D
:1019E000398B288BF3012381EE85FF8523FD8591BB
:1019F00023FF8191FF87EE87882309F45AC385323C
:101A000051F4EE85FF8523FD859123FF8191FF87AA
:101A1000EE87853229F490E0B3010E940F14E2CFE3
:101A2000982F10E0882499241032B0F49B3269F08A
:101A30009C3228F4903251F0933271F40BC09D32F5
:101A400039F0903349F4116028C01260146025C049
:101A5000186023C0106121C017FD2AC0892F805350
:101A60008A3078F416FF06C0FAE09F9E902C11246D
:101A7000980E13C03AE0839E802C1124880E1062C9
:101A80000CC09E3221F416FD14C3106406C09C36AF
:101A900011F4106802C0983659F4EE85FF8523FDD5
:101AA000959123FF9191FF87EE87992309F0BCCF91
:101AB000892F8554833020F4812F8061905E07C088
:101AC000892F8556833008F09FC1812F8F7E86FD38
:101AD00002C076E0972E6FE3F62EF822953619F4C1
:101AE000F0E4FF2A07C0963619F420E8F22A02C073
:101AF00091109A94F7FE0AC03BE3391518F45CE3A1
:101B0000B52E02C0B92CB39427E009C047E04915AF
:101B100020F4BB2447E0942EF7CF292DBB24C60127
:101B200004969D878C87F601608171818281938103
:101B3000AE014F5F5F4F0B2D0E9421136C01098195
:101B4000202E332400FF04C003FD02C01DE209C0A3
:101B5000F1FE02C01BE205C0F2FC02C010E001C0B1
:101B600010E2C1018C709070892BB9F1112311F42E
:101B700083E001C084E0881510F088240AC0881A28
:101B8000F3FC07C080E290E0B3010E940F148A9436
:101B9000C9F7112329F0812F90E0B3010E940F149F
:101BA00023FE03C00CE812E00EC000E912E00BC0F7
:101BB000E114F10409F0805290E0B3010E940F1487
:101BC0000F5F1F4F05C0EF2CFF24F0E1EF22FF2431
:101BD000F8018491882361F714C1F7FE12C0BC0C90
:101BE00024FE04C08A81813309F4BA941B141CF0CA
:101BF000BB24B3942DC0F8E0FB1550F538E0B32EAC
:101C000027C0F6FC25C0892D90E08C159D054CF071
:101C10002CEFC2162FEFD20624F030E8F32A01C0D1
:101C20009A94992049F0E2E0F0E0EC0FFD1FE90DF5
:101C3000F11D80818033A1F3F7FE0AC0B92CB39463
:101C4000892D90E0C816D90614F0992401C09C187B
:101C5000F7FC03C025E030E009C01C141D041CF093
:101C600021E030E003C096012F5F3F4F112311F0B8
:101C70002F5F3F4F992029F0892D90E00196280F82
:101C8000391F882D90E02817390714F0882401C0E7
:101C9000821A4F2C5524C20189709070892B39F01B
:101CA00008C080E290E0B3010E940F148A9488205B
:101CB000C1F7112329F0812F90E0B3010E940F1486
:101CC00043FE07C008C080E390E0B3010E940F14F8
:101CD0008A948820C1F7F7FE46C08601D7FE02C06D
:101CE00000E010E076010894E11CF11CE01AF10A12
:101CF00041E050E04C0F5D1FE40EF51E26014B182D
:101D00005108892D90E0AA24BB24A81AB90A5FEFD4
:101D10000F3F150729F48EE290E0B3010E940F14E3
:101D2000C016D10634F0401651061CF4F70180812C
:101D300001C080E3015010400894E11CF11C0A1519
:101D40001B052CF090E0B3010E940F14E0CF0C159E
:101D50001D0539F49A81963318F4953311F424FE55
:101D600081E390E04BC08A81813309F00F7E90E0DF
:101D7000B3010E940F149920A1F08EE290E0B3010C
:101D80000E940F1412E0E1E0F0E0EC0FFD1FE10F04
:101D9000F11D1F5F808190E0B3010E940F149A949F
:101DA00091F744FC03C085E690E002C085E490E032
:101DB000B3010E940F14D7FC05C0C114D10441F433
:101DC00004FF06C0D094C194D108D3948DE201C021
:101DD0008BE290E0B3010E940F1480E305C08F5F97
:101DE00026EF3FEFC20ED31E3AE0C316D104BCF774
:101DF00090E0B3010E940F14C601C096B3010E9487
:101E00000F14CC84DD8452C1933631F0933799F0AE
:101E1000933509F059C023C0F601808189835E01A2
:101E20000894A11CB11C22E030E0C20ED31E21E0B8
:101E3000E22EF12C12C0F601A080B18016FD03C085
:101E40006FEF7FEF02C0692D70E022E030E0C20E3C
:101E5000D31EC5010E9404147C011F7713C0F60134
:101E6000A080B18016FD03C06FEF7FEF02C0692D27
:101E700070E022E030E0C20ED31EC5010E94F913CB
:101E80007C01106813FF07C01BC080E290E0B30123
:101E90000E940F148A94882D90E0E816F906A8F3A2
:101EA0000FC0F50117FD859117FF81915F0190E04B
:101EB000B3010E940F1481108A940894E108F1087C
:101EC000E114F10471F7F2C0943611F0993689F5F6
:101ED00017FF08C0F601208131814281538184E0DF
:101EE00090E00AC0F601808191819C01442737FD72
:101EF0004095542F82E090E0C80ED91E9FE6F92E3F
:101F0000F12257FF09C050954095309521953F4FDC
:101F10004F4F5F4F90E8F92ACA01B901AE014F5FF8
:101F20005F4F2AE030E00E946C14E82EE889EE1A38
:101F300041C0953721F41F7E2AE030E01CC0197F94
:101F40009F3661F0903720F4983509F0B2C00FC089
:101F5000903739F0983709F0ACC004C028E030E081
:101F60000AC0106114FD146020E130E004C014FDCB
:101F7000166020E132E017FF08C0F6016081718130
:101F80008281938144E050E008C0F6018081918114
:101F9000BC0180E090E042E050E0C40ED51EAE01EE
:101FA0004F5F5F4F0E946C14E82E5889E51A8FE747
:101FB000F82EF122F6FE0BC08EEFF822E91438F469
:101FC000F4FE07C0F2FC05C09FEEF92202C01E2DF0
:101FD00001C0192DF4FE0DC0FE01EE0DF11D808132
:101FE000803319F4E9EEFE2208C01F5FF2FE05C03F
:101FF00003C08F2D867809F01F5F0F2DF3FC14C0EE
:10200000F0FE0FC0181510F09E2C0BC09E2C980CE3
:10201000911A182D06C080E290E0B3010E940F14BF
:102020001F5F1815C0F304C0181510F4811A01C001
:10203000882404FF0FC080E390E0B3010E940F14D6
:1020400002FF1DC001FD03C088E790E00EC088E5D7
:1020500090E00BC0802F867891F001FF02C08BE2E8
:1020600001C080E2F7FC8DE290E0B3010E940F1402
:1020700006C080E390E0B3010E940F149A94E91423
:10208000C0F3EA94E1E0F0E0EC0FFD1FEE0DF11D6E
:10209000808190E0B3010E940F14EE2091F706C0FA
:1020A00080E290E0B3010E940F148A948820C1F767
:1020B00099CCF30166817781CB016196E2E10C94C2
:1020C000A5125058BB27AA270ED075C166D130F093
:1020D0006BD120F031F49F3F11F41EF45BC10EF47C
:1020E000E095E7FB51C1E92F77D180F3BA1762077A
:1020F00073078407950718F071F49EF58FC10EF4ED
:10210000E0950B2EBA2FA02D0B01B90190010C0107
:10211000CA01A0011124FF27591B99F0593F50F41F
:10212000503E68F11A16F040A22F232F342F442777
:10213000585FF3CF469537952795A795F04053956F
:10214000C9F77EF41F16BA0B620B730B840BBAF03F
:102150009150A1F0FF0FBB1F661F771F881FC2F7AA
:102160000EC0BA0F621F731F841F48F487957795BE
:102170006795B795F7959E3F08F0B3CF9395880F75
:1021800008F09927EE0F979587950895D9D008F410
:1021900081E008950CD00FC107D140F0FED030F09F
:1021A00021F45F3F19F0F0C0511139C1F3C014D1CF
:1021B00098F39923C9F35523B1F3951B550BBB270E
:1021C000AA2762177307840738F09F5F5F4F220FBB
:1021D000331F441FAA1FA9F333D00E2E3AF0E0E8B4
:1021E00030D091505040E695001CCAF729D0FE2F00
:1021F00027D0660F771F881FBB1F26173707480792
:10220000AB07B0E809F0BB0B802DBF01FF27935847
:102210005F4F2AF09E3F510568F0B6C000C15F3F96
:10222000ECF3983EDCF3869577956795B795F7952F
:102230009F5FC9F7880F911D9695879597F9089527
:10224000E1E0660F771F881FBB1F621773078407C3
:10225000BA0720F0621B730B840BBA0BEE1F88F7D2
:10226000E095089504D06894B111D9C00895BCD008
:1022700088F09F5790F0B92F9927B751A0F0D1F06F
:10228000660F771F881F991F1AF0BA95C9F712C0F9
:10229000B13081F0C3D0B1E00895C0C0672F782F6E
:1022A0008827B85F39F0B93FCCF386957795679565
:1022B000B395D9F73EF490958095709561957F4FD1
:1022C0008F4F9F4F0895E89409C097FB3EF4909577
:1022D0008095709561957F4F8F4F9F4F9923A9F0FF
:1022E000F92F96E9BB279395F6958795779567958E
:1022F000B795F111F8CFFAF4BB0F11F460FF1BC0D2
:102300006F5F7F4F8F4F9F4F16C0882311F096E964
:1023100011C0772321F09EE8872F762F05C0662312
:1023200071F096E8862F70E060E02AF09A95660FCB
:10233000771F881FDAF7880F9695879597F9089584
:10234000990F0008550FAA0BE0E8FEEF16161706C6
:10235000E807F907C0F012161306E407F50798F02E
:10236000621B730B840B950B39F40A2661F0232B47
:10237000242B252B21F408950A2609F4A140A695C3
:102380008FEF811D811D089597F99F6780E870E0A8
:1023900060E008959FEF80EC089500240A941616DB
:1023A000170618060906089500240A941216130643
:1023B000140605060895092E0394000C11F48823D1
:1023C00052F0BB0F40F4BF2B11F460FF04C06F5FED
:1023D0007F4F8F4F9F4F089557FD9058440F551FC3
:1023E00059F05F3F71F04795880F97FB991F61F097
:1023F0009F3F79F087950895121613061406551F0E
:10240000F2CF4695F1DF08C0161617061806991F79
:10241000F1CF86957105610508940895E894BB276E
:1024200066277727CB0197F908958ADF08F48FEFA5
:102430000895DADFE0F09E37D8F09639B8F49E3888
:1024400048F4672F782F8827985FF9CF869577957E
:10245000679593959539D0F3B62FB1706B0F711DB9
:10246000811D20F4879577956795939502C01CC0D0
:10247000D6CF882371F4772321F09850872B762FBD
:1024800007C0662311F499270DC09051862B70E088
:1024900060E02AF09A95660F771F881FDAF7880F99
:1024A0009695879597F908959F3F31F0915020F4C4
:1024B000879577956795B795880F911D9695879520
:1024C00097F90895AA1BBB1B51E107C0AA1FBB1FA8
:1024D000A617B70710F0A61BB70B881F991F5A95B0
:1024E000A9F780959095BC01CD01089597FB092E21
:1024F00007260AD077FD04D0E5DF06D000201AF4C5
:10250000709561957F4F0895F6F7909581959F4F4F
:1025100008952F923F924F925F926F927F928F9287
:102520009F92AF92BF92CF92DF92EF92FF920F9362
:102530001F93CF93DF93CDB7DEB7CA1BDB0B0FB66C
:10254000F894DEBF0FBECDBF09942A883988488829
:102550005F846E847D848C849B84AA84B984C884BF
:10256000DF80EE80FD800C811B81AA81B981CE0FB6
:10257000D11D0FB6F894DEBF0FBECDBFED0108959B
:10258000A0E0B0E0E6ECF2E10C949112EC01A8803E
:10259000B980CA80DB80A114B104C104D10441F424
:1025A00084E2A82E89EDB82E8BE5C82E87E0D82EC0
:1025B000C601B5012DE133EF41E050E00E94E9147E
:1025C00027EA31E440E050E00E94CA147B018C010C
:1025D000C601B5012DE133EF41E050E00E94E9145E
:1025E000CA01B9012CEE34EF4FEF5FEF0E94CA141D
:1025F0006E0D7F1D801F911F97FF04C061507040BA
:1026000080409048688379838A839B839B013F77CE
:10261000C901CDB7DEB7EAE00C94AD120E94C0123A
:10262000089589E991E00E94C0120895A0E0B0E009
:102630008093990190939A01A0939B01B0939C0180
:102640000895283008F027E03327DA01990F311D6B
:1026500087FD916000966105710539F432602E5F47
:102660003D9330E32A95E1F708959F3F30F080389D
:102670007105610509F03C5F3C5F3D93913008F0C6
:102680008068911DDF93CF931F930F93FF92EF927A
:10269000192F987F9695E92F96959695E90FFF2724
:1026A000E251FD4F99273327EE24FF24A701E701CC
:1026B00005900894079428F4360FE71EF81E491F6A
:1026C000511D660F771F881F991F0694A1F705906B
:1026D000079428F4E70EF81E491F561FC11D770FF7
:1026E000881F991F661F0694A1F70590079428F488
:1026F000F80E491F561FC71FD11D880F991F661F4F
:10270000771F0694A1F70590079420F4490F561FF0
:10271000C71FD81F990F661F771F881F0694A9F738
:1027200084911095177041F0D695C79557954795A8
:10273000F794E7941A95C1F7E4E9F2E068941590EC
:10274000159135916591959105907FE27395E1180A
:10275000F10A430B560BC90BD009C0F7E10CF11E6F
:10276000431F561FC91FD01D7EF4703311F48A9584
:10277000E6CFE894015030F0080F0AF40027021762
:1027800008F4202F2395022F7A3328F079E37D93E4
:102790002A95E9F710C07D932A9589F606949795B6
:1027A0006795379517951794E118F10A430B560B67
:1027B000C90BD00998F023957E9173957A3308F070
:1027C00070E37C932013B8F77E9170617D9330F0B5
:1027D000839571E37D9370E32A95E1F71124EF90DF
:1027E000FF900F911F91CF91DF91992787FD9095D1
:1027F0000895FC010590615070400110D8F7809554
:1028000090958E0F9F1F0895FC01615070400190BC
:102810000110D8F7809590958E0F9F1F08950F9304
:102820001F93CF93DF938C01EB018B8181FF1BC042
:1028300082FF0DC02E813F818C819D812817390731
:1028400064F4E881F9810193F983E88306C0E8859F
:10285000F985802F0995892B31F48E819F8101960E
:102860009F838E8302C00FEF1FEFC801DF91CF91CE
:102870001F910F910895AEE0B0E0E1E4F4E10C9413
:1028800097120D891E898F89988D97FF02C080E06D
:1028900090E801979E838D831A83098386E08C8359
:1028A0009E01255E3F4FCE010196698D7A8DA9016B
:1028B0000E94DA0C4D815E8157FD0AC02F81388558
:1028C000421753070CF49A01020F131FF8011082EC
:1028D0002E96E4E00C94B312FA01AA27283051F1A5
:1028E000203181F1E8946F936E7F6E5F7F4F8F4F41
:1028F0009F4FAF4FB1E03ED0B4E03CD0670F781FA0
:10290000891F9A1FA11D680F791F8A1F911DA11D84
:102910006A0F711D811D911DA11D20D009F46894BD
:102920003F912AE0269F11243019305D3193DEF665
:10293000CF010895462F4770405D4193B3E00FD01B
:10294000C9F7F6CF462F4F70405D4A3318F0495D06
:1029500031FD4052419302D0A9F7EACFB4E0A695E9
:102960009795879577956795BA95C9F7009761050B
:10297000710508959B01AC010A2E06945795479561
:1029800037952795BA95C9F7620F731F841F951F56
:10299000A01D0895629FD001739FF001829FE00DFA
:1029A000F11D649FE00DF11D929FF00D839FF00DCE
:1029B000749FF00D659FF00D9927729FB00DE11D7A
:1029C000F91F639FB00DE11DF91FBD01CF01112457
:1029D000089597FB092E05260ED057FD04D014D07C
:1029E0000AD0001C38F450954095309521953F4F02
:1029F0004F4F5F4F0895F6F79095809570956195CC
:102A00007F4F8F4F9F4F0895A1E21A2EAA1BBB1B29
:102A1000FD010DC0AA1FBB1FEE1FFF1FA217B307AA
:102A2000E407F50720F0A21BB30BE40BF50B661FC0
:102A3000771F881F991F1A9469F760957095809584
:102A400090959B01AC01BD01CF010895F894FFCF93
:102A500057616C646F20466F75636865006E393925
:102A60003530303935002D3E5357320047414D4502
:102A7000204F56455221002D3E205357332052659A
:102A80007374617274002D3E205357322073686F47
:102A9000772073636F726500253032643A253032D7
:102AA0006400256400544F54414C2053434F524519
:102AB0000047414D45205041555345440053434F35
:102AC00052453A20004C495645533A200054494D4E
:102AD000453A0001548A7EC3FF3C243C187E5A18B4
:0E2AE0003CFFFFFFFFAA55AA550100000000B1
:00000001FF
